{
  "_format": "hh-sol-artifact-1",
  "contractName": "BuyCoffee",
  "sourceName": "contracts/BuyMeACoffee.sol",
  "abi": [
    {
      "inputs": [],
      "stateMutability": "nonpayable",
      "type": "constructor"
    },
    {
      "inputs": [
        {
          "internalType": "string",
          "name": "name",
          "type": "string"
        },
        {
          "internalType": "string",
          "name": "message",
          "type": "string"
        }
      ],
      "name": "buy",
      "outputs": [],
      "stateMutability": "payable",
      "type": "function"
    },
    {
      "inputs": [
        {
          "internalType": "uint256",
          "name": "newPrice",
          "type": "uint256"
        }
      ],
      "name": "changePrice",
      "outputs": [],
      "stateMutability": "nonpayable",
      "type": "function"
    },
    {
      "inputs": [],
      "name": "getMemos",
      "outputs": [
        {
          "components": [
            {
              "internalType": "string",
              "name": "name",
              "type": "string"
            },
            {
              "internalType": "string",
              "name": "message",
              "type": "string"
            },
            {
              "internalType": "uint256",
              "name": "time",
              "type": "uint256"
            },
            {
              "internalType": "address",
              "name": "from",
              "type": "address"
            }
          ],
          "internalType": "struct BuyCoffee.Memo[]",
          "name": "",
          "type": "tuple[]"
        }
      ],
      "stateMutability": "view",
      "type": "function"
    },
    {
      "inputs": [],
      "name": "price",
      "outputs": [
        {
          "internalType": "uint256",
          "name": "",
          "type": "uint256"
        }
      ],
      "stateMutability": "view",
      "type": "function"
    }
  ],
  "bytecode": "0x608060405266038d7ea4c6800060015534801561001b57600080fd5b50336000806101000a81548173ffffffffffffffffffffffffffffffffffffffff021916908373ffffffffffffffffffffffffffffffffffffffff160217905550610d458061006b6000396000f3fe60806040526004361061003f5760003560e01c8063865c517214610044578063a035b1fe1461006f578063a2b40d191461009a578063c63e529b146100c3575b600080fd5b34801561005057600080fd5b506100596100df565b6040516100669190610708565b60405180910390f35b34801561007b57600080fd5b506100846102c2565b6040516100919190610739565b60405180910390f35b3480156100a657600080fd5b506100c160048036038101906100bc9190610794565b6102c8565b005b6100dd60048036038101906100d891906108f6565b61032a565b005b60606002805480602002602001604051908101604052809291908181526020016000905b828210156102b957838290600052602060002090600402016040518060800160405290816000820180546101369061099d565b80601f01602080910402602001604051908101604052809291908181526020018280546101629061099d565b80156101af5780601f10610184576101008083540402835291602001916101af565b820191906000526020600020905b81548152906001019060200180831161019257829003601f168201915b505050505081526020016001820180546101c89061099d565b80601f01602080910402602001604051908101604052809291908181526020018280546101f49061099d565b80156102415780601f1061021657610100808354040283529160200191610241565b820191906000526020600020905b81548152906001019060200180831161022457829003601f168201915b50505050508152602001600282015481526020016003820160009054906101000a900473ffffffffffffffffffffffffffffffffffffffff1673ffffffffffffffffffffffffffffffffffffffff1673ffffffffffffffffffffffffffffffffffffffff168152505081526020019060010190610103565b50505050905090565b60015481565b60008054906101000a900473ffffffffffffffffffffffffffffffffffffffff1673ffffffffffffffffffffffffffffffffffffffff163373ffffffffffffffffffffffffffffffffffffffff161461032057600080fd5b8060018190555050565b60015434101561036f576040517f08c379a000000000000000000000000000000000000000000000000000000000815260040161036690610a2b565b60405180910390fd5b600060405180608001604052808481526020018381526020014281526020013373ffffffffffffffffffffffffffffffffffffffff16815250905060008060009054906101000a900473ffffffffffffffffffffffffffffffffffffffff1673ffffffffffffffffffffffffffffffffffffffff16346040516103f190610a7c565b60006040518083038185875af1925050503d806000811461042e576040519150601f19603f3d011682016040523d82523d6000602084013e610433565b606091505b505090508061044157600080fd5b600282908060018154018082558091505060019003906000526020600020906004020160009091909190915060008201518160000190816104829190610c3d565b5060208201518160010190816104989190610c3d565b506040820151816002015560608201518160030160006101000a81548173ffffffffffffffffffffffffffffffffffffffff021916908373ffffffffffffffffffffffffffffffffffffffff160217905550505050505050565b600081519050919050565b600082825260208201905092915050565b6000819050602082019050919050565b600081519050919050565b600082825260208201905092915050565b60005b8381101561055857808201518184015260208101905061053d565b60008484015250505050565b6000601f19601f8301169050919050565b60006105808261051e565b61058a8185610529565b935061059a81856020860161053a565b6105a381610564565b840191505092915050565b6000819050919050565b6105c1816105ae565b82525050565b600073ffffffffffffffffffffffffffffffffffffffff82169050919050565b60006105f2826105c7565b9050919050565b610602816105e7565b82525050565b600060808301600083015184820360008601526106258282610575565b9150506020830151848203602086015261063f8282610575565b915050604083015161065460408601826105b8565b50606083015161066760608601826105f9565b508091505092915050565b600061067e8383610608565b905092915050565b6000602082019050919050565b600061069e826104f2565b6106a881856104fd565b9350836020820285016106ba8561050e565b8060005b858110156106f657848403895281516106d78582610672565b94506106e283610686565b925060208a019950506001810190506106be565b50829750879550505050505092915050565b600060208201905081810360008301526107228184610693565b905092915050565b610733816105ae565b82525050565b600060208201905061074e600083018461072a565b92915050565b6000604051905090565b600080fd5b600080fd5b610771816105ae565b811461077c57600080fd5b50565b60008135905061078e81610768565b92915050565b6000602082840312156107aa576107a961075e565b5b60006107b88482850161077f565b91505092915050565b600080fd5b600080fd5b7f4e487b7100000000000000000000000000000000000000000000000000000000600052604160045260246000fd5b61080382610564565b810181811067ffffffffffffffff82111715610822576108216107cb565b5b80604052505050565b6000610835610754565b905061084182826107fa565b919050565b600067ffffffffffffffff821115610861576108606107cb565b5b61086a82610564565b9050602081019050919050565b82818337600083830152505050565b600061089961089484610846565b61082b565b9050828152602081018484840111156108b5576108b46107c6565b5b6108c0848285610877565b509392505050565b600082601f8301126108dd576108dc6107c1565b5b81356108ed848260208601610886565b91505092915050565b6000806040838503121561090d5761090c61075e565b5b600083013567ffffffffffffffff81111561092b5761092a610763565b5b610937858286016108c8565b925050602083013567ffffffffffffffff81111561095857610957610763565b5b610964858286016108c8565b9150509250929050565b7f4e487b7100000000000000000000000000000000000000000000000000000000600052602260045260246000fd5b600060028204905060018216806109b557607f821691505b6020821081036109c8576109c761096e565b5b50919050565b600082825260208201905092915050565b7f596f75206e65656420746f207370656e64206d6f726500000000000000000000600082015250565b6000610a156016836109ce565b9150610a20826109df565b602082019050919050565b60006020820190508181036000830152610a4481610a08565b9050919050565b600081905092915050565b50565b6000610a66600083610a4b565b9150610a7182610a56565b600082019050919050565b6000610a8782610a59565b9150819050919050565b60008190508160005260206000209050919050565b60006020601f8301049050919050565b600082821b905092915050565b600060088302610af37fffffffffffffffffffffffffffffffffffffffffffffffffffffffffffffffff82610ab6565b610afd8683610ab6565b95508019841693508086168417925050509392505050565b6000819050919050565b6000610b3a610b35610b30846105ae565b610b15565b6105ae565b9050919050565b6000819050919050565b610b5483610b1f565b610b68610b6082610b41565b848454610ac3565b825550505050565b600090565b610b7d610b70565b610b88818484610b4b565b505050565b5b81811015610bac57610ba1600082610b75565b600181019050610b8e565b5050565b601f821115610bf157610bc281610a91565b610bcb84610aa6565b81016020851015610bda578190505b610bee610be685610aa6565b830182610b8d565b50505b505050565b600082821c905092915050565b6000610c1460001984600802610bf6565b1980831691505092915050565b6000610c2d8383610c03565b9150826002028217905092915050565b610c468261051e565b67ffffffffffffffff811115610c5f57610c5e6107cb565b5b610c69825461099d565b610c74828285610bb0565b600060209050601f831160018114610ca75760008415610c95578287015190505b610c9f8582610c21565b865550610d07565b601f198416610cb586610a91565b60005b82811015610cdd57848901518255600182019150602085019450602081019050610cb8565b86831015610cfa5784890151610cf6601f891682610c03565b8355505b6001600288020188555050505b50505050505056fea2646970667358221220cb62eee3cc5fa646bb0023962ed10ad9045b43a12d3c7149cd1884178bf5325264736f6c63430008110033",
  "linkReferences": {},
  "deployedLinkReferences": {}
}